{
  "_format": "hh-sol-artifact-1",
  "contractName": "EpicNFT",
  "sourceName": "contracts/EpicNFT.sol",
  "abi": [
    {
      "inputs": [],
      "stateMutability": "nonpayable",
      "type": "constructor"
    },
    {
      "anonymous": false,
      "inputs": [
        {
          "indexed": true,
          "internalType": "address",
          "name": "owner",
          "type": "address"
        },
        {
          "indexed": true,
          "internalType": "address",
          "name": "approved",
          "type": "address"
        },
        {
          "indexed": true,
          "internalType": "uint256",
          "name": "tokenId",
          "type": "uint256"
        }
      ],
      "name": "Approval",
      "type": "event"
    },
    {
      "anonymous": false,
      "inputs": [
        {
          "indexed": true,
          "internalType": "address",
          "name": "owner",
          "type": "address"
        },
        {
          "indexed": true,
          "internalType": "address",
          "name": "operator",
          "type": "address"
        },
        {
          "indexed": false,
          "internalType": "bool",
          "name": "approved",
          "type": "bool"
        }
      ],
      "name": "ApprovalForAll",
      "type": "event"
    },
    {
      "anonymous": false,
      "inputs": [
        {
          "indexed": false,
          "internalType": "address",
          "name": "sender",
          "type": "address"
        },
        {
          "indexed": false,
          "internalType": "uint256",
          "name": "tokenId",
          "type": "uint256"
        }
      ],
      "name": "NewEpicNFTMinted",
      "type": "event"
    },
    {
      "anonymous": false,
      "inputs": [
        {
          "indexed": true,
          "internalType": "address",
          "name": "from",
          "type": "address"
        },
        {
          "indexed": true,
          "internalType": "address",
          "name": "to",
          "type": "address"
        },
        {
          "indexed": true,
          "internalType": "uint256",
          "name": "tokenId",
          "type": "uint256"
        }
      ],
      "name": "Transfer",
      "type": "event"
    },
    {
      "inputs": [
        {
          "internalType": "address",
          "name": "to",
          "type": "address"
        },
        {
          "internalType": "uint256",
          "name": "tokenId",
          "type": "uint256"
        }
      ],
      "name": "approve",
      "outputs": [],
      "stateMutability": "nonpayable",
      "type": "function"
    },
    {
      "inputs": [
        {
          "internalType": "address",
          "name": "owner",
          "type": "address"
        }
      ],
      "name": "balanceOf",
      "outputs": [
        {
          "internalType": "uint256",
          "name": "",
          "type": "uint256"
        }
      ],
      "stateMutability": "view",
      "type": "function"
    },
    {
      "inputs": [],
      "name": "buildNftTokenIdLabel",
      "outputs": [
        {
          "internalType": "string",
          "name": "",
          "type": "string"
        }
      ],
      "stateMutability": "view",
      "type": "function"
    },
    {
      "inputs": [
        {
          "internalType": "uint256",
          "name": "tokenId",
          "type": "uint256"
        }
      ],
      "name": "getApproved",
      "outputs": [
        {
          "internalType": "address",
          "name": "",
          "type": "address"
        }
      ],
      "stateMutability": "view",
      "type": "function"
    },
    {
      "inputs": [],
      "name": "getMaxNFTSToMint",
      "outputs": [
        {
          "internalType": "uint256",
          "name": "",
          "type": "uint256"
        }
      ],
      "stateMutability": "pure",
      "type": "function"
    },
    {
      "inputs": [],
      "name": "getNumberOfMintedNFTs",
      "outputs": [
        {
          "internalType": "uint256",
          "name": "",
          "type": "uint256"
        }
      ],
      "stateMutability": "view",
      "type": "function"
    },
    {
      "inputs": [
        {
          "internalType": "address",
          "name": "owner",
          "type": "address"
        },
        {
          "internalType": "address",
          "name": "operator",
          "type": "address"
        }
      ],
      "name": "isApprovedForAll",
      "outputs": [
        {
          "internalType": "bool",
          "name": "",
          "type": "bool"
        }
      ],
      "stateMutability": "view",
      "type": "function"
    },
    {
      "inputs": [],
      "name": "makeAnEpicNFT",
      "outputs": [],
      "stateMutability": "nonpayable",
      "type": "function"
    },
    {
      "inputs": [],
      "name": "name",
      "outputs": [
        {
          "internalType": "string",
          "name": "",
          "type": "string"
        }
      ],
      "stateMutability": "view",
      "type": "function"
    },
    {
      "inputs": [
        {
          "internalType": "uint256",
          "name": "tokenId",
          "type": "uint256"
        }
      ],
      "name": "ownerOf",
      "outputs": [
        {
          "internalType": "address",
          "name": "",
          "type": "address"
        }
      ],
      "stateMutability": "view",
      "type": "function"
    },
    {
      "inputs": [],
      "name": "pickRandomFirstWord",
      "outputs": [
        {
          "internalType": "string",
          "name": "",
          "type": "string"
        }
      ],
      "stateMutability": "view",
      "type": "function"
    },
    {
      "inputs": [],
      "name": "pickRandomSecondWord",
      "outputs": [
        {
          "internalType": "string",
          "name": "",
          "type": "string"
        }
      ],
      "stateMutability": "view",
      "type": "function"
    },
    {
      "inputs": [],
      "name": "pickRandomThirdWord",
      "outputs": [
        {
          "internalType": "string",
          "name": "",
          "type": "string"
        }
      ],
      "stateMutability": "view",
      "type": "function"
    },
    {
      "inputs": [],
      "name": "pickSvgBgStyle",
      "outputs": [
        {
          "internalType": "string",
          "name": "",
          "type": "string"
        }
      ],
      "stateMutability": "view",
      "type": "function"
    },
    {
      "inputs": [],
      "name": "pickSvgFontStyle",
      "outputs": [
        {
          "internalType": "string",
          "name": "",
          "type": "string"
        }
      ],
      "stateMutability": "view",
      "type": "function"
    },
    {
      "inputs": [
        {
          "internalType": "address",
          "name": "from",
          "type": "address"
        },
        {
          "internalType": "address",
          "name": "to",
          "type": "address"
        },
        {
          "internalType": "uint256",
          "name": "tokenId",
          "type": "uint256"
        }
      ],
      "name": "safeTransferFrom",
      "outputs": [],
      "stateMutability": "nonpayable",
      "type": "function"
    },
    {
      "inputs": [
        {
          "internalType": "address",
          "name": "from",
          "type": "address"
        },
        {
          "internalType": "address",
          "name": "to",
          "type": "address"
        },
        {
          "internalType": "uint256",
          "name": "tokenId",
          "type": "uint256"
        },
        {
          "internalType": "bytes",
          "name": "_data",
          "type": "bytes"
        }
      ],
      "name": "safeTransferFrom",
      "outputs": [],
      "stateMutability": "nonpayable",
      "type": "function"
    },
    {
      "inputs": [
        {
          "internalType": "address",
          "name": "operator",
          "type": "address"
        },
        {
          "internalType": "bool",
          "name": "approved",
          "type": "bool"
        }
      ],
      "name": "setApprovalForAll",
      "outputs": [],
      "stateMutability": "nonpayable",
      "type": "function"
    },
    {
      "inputs": [
        {
          "internalType": "bytes4",
          "name": "interfaceId",
          "type": "bytes4"
        }
      ],
      "name": "supportsInterface",
      "outputs": [
        {
          "internalType": "bool",
          "name": "",
          "type": "bool"
        }
      ],
      "stateMutability": "view",
      "type": "function"
    },
    {
      "inputs": [],
      "name": "symbol",
      "outputs": [
        {
          "internalType": "string",
          "name": "",
          "type": "string"
        }
      ],
      "stateMutability": "view",
      "type": "function"
    },
    {
      "inputs": [
        {
          "internalType": "uint256",
          "name": "tokenId",
          "type": "uint256"
        }
      ],
      "name": "tokenURI",
      "outputs": [
        {
          "internalType": "string",
          "name": "",
          "type": "string"
        }
      ],
      "stateMutability": "view",
      "type": "function"
    },
    {
      "inputs": [
        {
          "internalType": "address",
          "name": "from",
          "type": "address"
        },
        {
          "internalType": "address",
          "name": "to",
          "type": "address"
        },
        {
          "internalType": "uint256",
          "name": "tokenId",
          "type": "uint256"
        }
      ],
      "name": "transferFrom",
      "outputs": [],
      "stateMutability": "nonpayable",
      "type": "function"
    }
  ],
  "bytecode": "0x60806040526040518060a00160405280606281526020016200547260629139600890805190602001906200003592919062000fe4565b506040518060a00160405280607f8152602001620052f7607f9139600990805190602001906200006792919062000fe4565b506040518060e0016040528060bd8152602001620053b560bd9139600a90805190602001906200009992919062000fe4565b506040518060400160405280600c81526020017f3c7374796c653e2e6267207b0000000000000000000000000000000000000000815250600b9080519060200190620000e792919062000fe4565b506040518060400160405280600981526020017f7d3c2f7374796c653e0000000000000000000000000000000000000000000000815250600c90805190602001906200013592919062000fe4565b506040518060400160405280600d81526020017f3c7374796c653e2e6d7367207b00000000000000000000000000000000000000815250600d90805190602001906200018392919062000fe4565b506040518060600160405280603f815260200162005376603f9139600e9080519060200190620001b592919062000fe4565b50604051806101e001604052806040518060400160405280600681526020017f4d6967687479000000000000000000000000000000000000000000000000000081525081526020016040518060400160405280600681526020017f576f72746879000000000000000000000000000000000000000000000000000081525081526020016040518060400160405280600881526020017f466561726c65737300000000000000000000000000000000000000000000000081525081526020016040518060400160405280600581526020017f427261766500000000000000000000000000000000000000000000000000000081525081526020016040518060400160405280600681526020017f4865726f6963000000000000000000000000000000000000000000000000000081525081526020016040518060400160405280600581526020017f416e67727900000000000000000000000000000000000000000000000000000081525081526020016040518060400160405280600381526020017f536164000000000000000000000000000000000000000000000000000000000081525081526020016040518060400160405280600581526020017f486170707900000000000000000000000000000000000000000000000000000081525081526020016040518060400160405280600781526020017f437572696f75730000000000000000000000000000000000000000000000000081525081526020016040518060400160405280600881526020017f476f7267656f757300000000000000000000000000000000000000000000000081525081526020016040518060400160405280600681526020017f526f62757374000000000000000000000000000000000000000000000000000081525081526020016040518060400160405280600681526020017f506f74656e74000000000000000000000000000000000000000000000000000081525081526020016040518060400160405280600581526020017f546f75676800000000000000000000000000000000000000000000000000000081525081526020016040518060400160405280600681526020017f506f6c697465000000000000000000000000000000000000000000000000000081525081526020016040518060400160405280600681526020017f47656e746c650000000000000000000000000000000000000000000000000000815250815250600f90600f6200054792919062001075565b50604051806101e001604052806040518060400160405280600381526020017f436174000000000000000000000000000000000000000000000000000000000081525081526020016040518060400160405280600381526020017f446f67000000000000000000000000000000000000000000000000000000000081525081526020016040518060400160405280600581526020017f4561676c6500000000000000000000000000000000000000000000000000000081525081526020016040518060400160405280600781526020017f446f6c7068696e0000000000000000000000000000000000000000000000000081525081526020016040518060400160405280600581526020017f536861726b00000000000000000000000000000000000000000000000000000081525081526020016040518060400160405280600481526020017f4c696f6e0000000000000000000000000000000000000000000000000000000081525081526020016040518060400160405280600581526020017f546967657200000000000000000000000000000000000000000000000000000081525081526020016040518060400160405280600381526020017f506967000000000000000000000000000000000000000000000000000000000081525081526020016040518060400160405280600481526020017f476f61740000000000000000000000000000000000000000000000000000000081525081526020016040518060400160405280600481526020017f4f7263610000000000000000000000000000000000000000000000000000000081525081526020016040518060400160405280600381526020017f426174000000000000000000000000000000000000000000000000000000000081525081526020016040518060400160405280600381526020017f526174000000000000000000000000000000000000000000000000000000000081525081526020016040518060400160405280600581526020017f536c6f746800000000000000000000000000000000000000000000000000000081525081526020016040518060400160405280600581526020017f536865657000000000000000000000000000000000000000000000000000000081525081526020016040518060400160405280600481526020017f4372616200000000000000000000000000000000000000000000000000000000815250815250601090600f620008d992919062001075565b50604051806101e001604052806040518060400160405280600681526020017f4f66446f6f6d000000000000000000000000000000000000000000000000000081525081526020016040518060400160405280600a81526020017f4f664461726b6e6573730000000000000000000000000000000000000000000081525081526020016040518060400160405280600c81526020017f4f664d6973666f7274756e65000000000000000000000000000000000000000081525081526020016040518060400160405280600b81526020017f4f66537566666572696e6700000000000000000000000000000000000000000081525081526020016040518060400160405280600581526020017f4f6657617200000000000000000000000000000000000000000000000000000081525081526020016040518060400160405280600581526020017f4f6653696e00000000000000000000000000000000000000000000000000000081525081526020016040518060400160405280600681526020017f4f664576696c000000000000000000000000000000000000000000000000000081525081526020016040518060400160405280600881526020017f4f664d697365727900000000000000000000000000000000000000000000000081525081526020016040518060400160405280600781526020017f4f6641676f6e790000000000000000000000000000000000000000000000000081525081526020016040518060400160405280600881526020017f4f66506c6167756500000000000000000000000000000000000000000000000081525081526020016040518060400160405280600981526020017f46726f6d5370616365000000000000000000000000000000000000000000000081525081526020016040518060400160405280600c81526020017f46726f6d5468654162797373000000000000000000000000000000000000000081525081526020016040518060400160405280600b81526020017f46726f6d546865566f696400000000000000000000000000000000000000000081525081526020016040518060400160405280600d81526020017f46726f6d5468654465707468730000000000000000000000000000000000000081525081526020016040518060400160405280600881526020017f46726f6d48656c6c000000000000000000000000000000000000000000000000815250815250601190600f62000c6b92919062001075565b506040518060a0016040528060405180604001604052806040518060400160405280600781526020017f233261326333370000000000000000000000000000000000000000000000000081525081526020016040518060400160405280600781526020017f2335306661376200000000000000000000000000000000000000000000000000815250815250815260200160405180604001604052806040518060400160405280600781526020017f233263323132320000000000000000000000000000000000000000000000000081525081526020016040518060400160405280600781526020017f2366663935383000000000000000000000000000000000000000000000000000815250815250815260200160405180604001604052806040518060400160405280600781526020017f233234323032650000000000000000000000000000000000000000000000000081525081526020016040518060400160405280600781526020017f2339353830666600000000000000000000000000000000000000000000000000815250815250815260200160405180604001604052806040518060400160405280600781526020017f233263326132310000000000000000000000000000000000000000000000000081525081526020016040518060400160405280600781526020017f2366666666383000000000000000000000000000000000000000000000000000815250815250815260200160405180604001604052806040518060400160405280600781526020017f233261326333370000000000000000000000000000000000000000000000000081525081526020016040518060400160405280600781526020017f2366326632663200000000000000000000000000000000000000000000000000815250815250815250601290600562000f1b929190620010dc565b5034801562000f2957600080fd5b506040518060400160405280601581526020017f4d696768747952616e646f6d43726561747572657300000000000000000000008152506040518060400160405280600681526020017f4d69676874790000000000000000000000000000000000000000000000000000815250816000908051906020019062000fae92919062000fe4565b50806001908051906020019062000fc792919062000fe4565b505050444262000fd8919062001275565b60138190555062001370565b82805462000ff290620012dc565b90600052602060002090601f01602090048101928262001016576000855562001062565b82601f106200103157805160ff191683800117855562001062565b8280016001018555821562001062579182015b828111156200106157825182559160200191906001019062001044565b5b50905062001071919062001141565b5090565b828054828255906000526020600020908101928215620010c9579160200282015b82811115620010c8578251829080519060200190620010b792919062000fe4565b509160200191906001019062001096565b5b509050620010d8919062001160565b5090565b8280548282559060005260206000209060020281019282156200112e579160200282015b828111156200112d578251829060026200111c92919062001188565b509160200191906002019062001100565b5b5090506200113d9190620011e2565b5090565b5b808211156200115c57600081600090555060010162001142565b5090565b5b808211156200118457600081816200117a91906200120a565b5060010162001161565b5090565b8260028101928215620011cf579160200282015b82811115620011ce578251829080519060200190620011bd92919062000fe4565b50916020019190600101906200119c565b5b509050620011de919062001160565b5090565b5b80821115620012065760008181620011fc919062001250565b50600201620011e3565b5090565b5080546200121890620012dc565b6000825580601f106200122c57506200124d565b601f0160209004906000526020600020908101906200124c919062001141565b5b50565b50600081816200126191906200120a565b5060010160006200127391906200120a565b565b60006200128282620012d2565b91506200128f83620012d2565b9250827fffffffffffffffffffffffffffffffffffffffffffffffffffffffffffffffff03821115620012c757620012c662001312565b5b828201905092915050565b6000819050919050565b60006002820490506001821680620012f557607f821691505b602082108114156200130c576200130b62001341565b5b50919050565b7f4e487b7100000000000000000000000000000000000000000000000000000000600052601160045260246000fd5b7f4e487b7100000000000000000000000000000000000000000000000000000000600052602260045260246000fd5b613f7780620013806000396000f3fe608060405234801561001057600080fd5b50600436106101425760003560e01c806395078e1f116100b8578063b88d4fde1161007c578063b88d4fde14610367578063c05fe70b14610383578063c87b56dd146103a1578063dbc7982f146103d1578063de9d132f146103ef578063e985e9c5146103f957610142565b806395078e1f146102d357806395d89b41146102f15780639dea84f41461030f578063a22cb4651461032d578063a3ed48021461034957610142565b806342842e0e1161010a57806342842e0e146101fd57806355640ec8146102195780635d72f20b146102375780636352211e1461025557806370a0823114610285578063723f5c4a146102b557610142565b806301ffc9a71461014757806306fdde0314610177578063081812fc14610195578063095ea7b3146101c557806323b872dd146101e1575b600080fd5b610161600480360381019061015c91906129e5565b610429565b60405161016e919061377c565b60405180910390f35b61017f61050b565b60405161018c9190613797565b60405180910390f35b6101af60048036038101906101aa9190612a37565b61059d565b6040516101bc91906136ec565b60405180910390f35b6101df60048036038101906101da91906129a9565b610622565b005b6101fb60048036038101906101f691906128a3565b61073a565b005b610217600480360381019061021291906128a3565b61079a565b005b6102216107ba565b60405161022e9190613a17565b60405180910390f35b61023f6107c3565b60405161024c9190613797565b60405180910390f35b61026f600480360381019061026a9190612a37565b610956565b60405161027c91906136ec565b60405180910390f35b61029f600480360381019061029a919061283e565b610a08565b6040516102ac9190613a17565b60405180910390f35b6102bd610ac0565b6040516102ca9190613797565b60405180910390f35b6102db610c53565b6040516102e89190613797565b60405180910390f35b6102f9610d7d565b6040516103069190613797565b60405180910390f35b610317610e0f565b6040516103249190613a17565b60405180910390f35b6103476004803603810190610342919061296d565b610e20565b005b610351610e36565b60405161035e9190613797565b60405180910390f35b610381600480360381019061037c91906128f2565b610f60565b005b61038b610fc2565b6040516103989190613797565b60405180910390f35b6103bb60048036038101906103b69190612a37565b6110ec565b6040516103c89190613797565b60405180910390f35b6103d961123e565b6040516103e69190613797565b60405180910390f35b6103f7611290565b005b610413600480360381019061040e9190612867565b61156c565b604051610420919061377c565b60405180910390f35b60007f80ac58cd000000000000000000000000000000000000000000000000000000007bffffffffffffffffffffffffffffffffffffffffffffffffffffffff1916827bffffffffffffffffffffffffffffffffffffffffffffffffffffffff191614806104f457507f5b5e139f000000000000000000000000000000000000000000000000000000007bffffffffffffffffffffffffffffffffffffffffffffffffffffffff1916827bffffffffffffffffffffffffffffffffffffffffffffffffffffffff1916145b80610504575061050382611600565b5b9050919050565b60606000805461051a90613cb6565b80601f016020809104026020016040519081016040528092919081815260200182805461054690613cb6565b80156105935780601f1061056857610100808354040283529160200191610593565b820191906000526020600020905b81548152906001019060200180831161057657829003601f168201915b5050505050905090565b60006105a88261166a565b6105e7576040517f08c379a00000000000000000000000000000000000000000000000000000000081526004016105de90613977565b60405180910390fd5b6004600083815260200190815260200160002060009054906101000a900473ffffffffffffffffffffffffffffffffffffffff169050919050565b600061062d82610956565b90508073ffffffffffffffffffffffffffffffffffffffff168373ffffffffffffffffffffffffffffffffffffffff16141561069e576040517f08c379a0000000000000000000000000000000000000000000000000000000008152600401610695906139d7565b60405180910390fd5b8073ffffffffffffffffffffffffffffffffffffffff166106bd6116d6565b73ffffffffffffffffffffffffffffffffffffffff1614806106ec57506106eb816106e66116d6565b61156c565b5b61072b576040517f08c379a000000000000000000000000000000000000000000000000000000000815260040161072290613897565b60405180910390fd5b61073583836116de565b505050565b61074b6107456116d6565b82611797565b61078a576040517f08c379a0000000000000000000000000000000000000000000000000000000008152600401610781906139f7565b60405180910390fd5b610795838383611875565b505050565b6107b583838360405180602001604052806000815250610f60565b505050565b60006032905090565b606060006108056040518060400160405280600881526020017f42475f434f4c4f52000000000000000000000000000000000000000000000000815250611ad1565b9050601280549050816108189190613d3b565b9050600060128281548110610856577f4e487b7100000000000000000000000000000000000000000000000000000000600052603260045260246000fd5b906000526020600020906002020160016002811061089d577f4e487b7100000000000000000000000000000000000000000000000000000000600052603260045260246000fd5b0180546108a990613cb6565b80601f01602080910402602001604051908101604052809291908181526020018280546108d590613cb6565b80156109225780601f106108f757610100808354040283529160200191610922565b820191906000526020600020905b81548152906001019060200180831161090557829003601f168201915b50505050509050600d81600e6040516020016109409392919061363e565b6040516020818303038152906040529250505090565b6000806002600084815260200190815260200160002060009054906101000a900473ffffffffffffffffffffffffffffffffffffffff169050600073ffffffffffffffffffffffffffffffffffffffff168173ffffffffffffffffffffffffffffffffffffffff1614156109ff576040517f08c379a00000000000000000000000000000000000000000000000000000000081526004016109f6906138d7565b60405180910390fd5b80915050919050565b60008073ffffffffffffffffffffffffffffffffffffffff168273ffffffffffffffffffffffffffffffffffffffff161415610a79576040517f08c379a0000000000000000000000000000000000000000000000000000000008152600401610a70906138b7565b60405180910390fd5b600360008373ffffffffffffffffffffffffffffffffffffffff1673ffffffffffffffffffffffffffffffffffffffff168152602001908152602001600020549050919050565b60606000610b026040518060400160405280600881526020017f42475f434f4c4f52000000000000000000000000000000000000000000000000815250611ad1565b905060128054905081610b159190613d3b565b9050600060128281548110610b53577f4e487b7100000000000000000000000000000000000000000000000000000000600052603260045260246000fd5b9060005260206000209060020201600060028110610b9a577f4e487b7100000000000000000000000000000000000000000000000000000000600052603260045260246000fd5b018054610ba690613cb6565b80601f0160208091040260200160405190810160405280929190818152602001828054610bd290613cb6565b8015610c1f5780601f10610bf457610100808354040283529160200191610c1f565b820191906000526020600020905b815481529060010190602001808311610c0257829003601f168201915b50505050509050600b81600c604051602001610c3d9392919061363e565b6040516020818303038152906040529250505090565b60606000610c956040518060400160405280600b81526020017f5345434f4e445f574f5244000000000000000000000000000000000000000000815250611ad1565b905060108054905081610ca89190613d3b565b905060108181548110610ce4577f4e487b7100000000000000000000000000000000000000000000000000000000600052603260045260246000fd5b906000526020600020018054610cf990613cb6565b80601f0160208091040260200160405190810160405280929190818152602001828054610d2590613cb6565b8015610d725780601f10610d4757610100808354040283529160200191610d72565b820191906000526020600020905b815481529060010190602001808311610d5557829003601f168201915b505050505091505090565b606060018054610d8c90613cb6565b80601f0160208091040260200160405190810160405280929190818152602001828054610db890613cb6565b8015610e055780601f10610dda57610100808354040283529160200191610e05565b820191906000526020600020905b815481529060010190602001808311610de857829003601f168201915b5050505050905090565b6000610e1b6007611b08565b905090565b610e32610e2b6116d6565b8383611b16565b5050565b60606000610e786040518060400160405280600a81526020017f46495253545f574f524400000000000000000000000000000000000000000000815250611ad1565b9050600f8054905081610e8b9190613d3b565b9050600f8181548110610ec7577f4e487b7100000000000000000000000000000000000000000000000000000000600052603260045260246000fd5b906000526020600020018054610edc90613cb6565b80601f0160208091040260200160405190810160405280929190818152602001828054610f0890613cb6565b8015610f555780601f10610f2a57610100808354040283529160200191610f55565b820191906000526020600020905b815481529060010190602001808311610f3857829003601f168201915b505050505091505090565b610f71610f6b6116d6565b83611797565b610fb0576040517f08c379a0000000000000000000000000000000000000000000000000000000008152600401610fa7906139f7565b60405180910390fd5b610fbc84848484611c83565b50505050565b606060006110046040518060400160405280600a81526020017f54484952445f574f524400000000000000000000000000000000000000000000815250611ad1565b9050601180549050816110179190613d3b565b905060118181548110611053577f4e487b7100000000000000000000000000000000000000000000000000000000600052603260045260246000fd5b90600052602060002001805461106890613cb6565b80601f016020809104026020016040519081016040528092919081815260200182805461109490613cb6565b80156110e15780601f106110b6576101008083540402835291602001916110e1565b820191906000526020600020905b8154815290600101906020018083116110c457829003601f168201915b505050505091505090565b60606110f78261166a565b611136576040517f08c379a000000000000000000000000000000000000000000000000000000000815260040161112d90613937565b60405180910390fd5b600060066000848152602001908152602001600020805461115690613cb6565b80601f016020809104026020016040519081016040528092919081815260200182805461118290613cb6565b80156111cf5780601f106111a4576101008083540402835291602001916111cf565b820191906000526020600020905b8154815290600101906020018083116111b257829003601f168201915b5050505050905060006111e0611cdf565b90506000815114156111f6578192505050611239565b60008251111561122b5780826040516020016112139291906134f2565b60405160208183030381529060405292505050611239565b61123484611cf6565b925050505b919050565b6060600a61126060016112516007611b08565b61125b9190613aeb565b611d9d565b61126a6032611d9d565b60405160200161127c939291906135f7565b604051602081830303815290604052905090565b600061129c6007611b08565b9050600160326112ac9190613bcc565b81106112ed576040517f08c379a00000000000000000000000000000000000000000000000000000000081526004016112e490613957565b60405180910390fd5b60006112f7610e36565b90506000611303610c53565b9050600061130f610fc2565b9050600083838360405160200161132893929190613516565b60405160208183030381529060405290506000611343610ac0565b9050600061134f6107c3565b9050600061135b61123e565b905060006008848460098b8b8b8860405160200161138098979695949392919061356f565b60405160208183030381529060405290506113b2604051806060016040528060258152602001613e9660259139611f4a565b6113bb81611f4a565b6113f96040518060400160405280601581526020017f2d2d2d2d2d2d2d2d2d2d2d2d2d2d2d2d2d2d2d2d0a0000000000000000000000815250611f4a565b600061142d8661140884611fe3565b604051602001611419929190613685565b604051602081830303815290604052611fe3565b905060008160405160200161144291906136ca565b6040516020818303038152906040529050611474604051806060016040528060228152602001613ee060229139611f4a565b61147d81611f4a565b6114bb6040518060400160405280601581526020017f2d2d2d2d2d2d2d2d2d2d2d2d2d2d2d2d2d2d2d2d0a0000000000000000000000815250611f4a565b6114c5338c612182565b6114cf8b826121a0565b6114d96007612214565b8a60135442446114e99190613aeb565b6114f39190613aeb565b6114fd9190613aeb565b601381905550611526604051806060016040528060258152602001613ebb602591398c3361222a565b7febb98688741ffa4c7589bf325de30cf7becb63de567842e1ccdb6cb949fdc82c338c604051611557929190613753565b60405180910390a15050505050505050505050565b6000600560008473ffffffffffffffffffffffffffffffffffffffff1673ffffffffffffffffffffffffffffffffffffffff16815260200190815260200160002060008373ffffffffffffffffffffffffffffffffffffffff1673ffffffffffffffffffffffffffffffffffffffff16815260200190815260200160002060009054906101000a900460ff16905092915050565b60007f01ffc9a7000000000000000000000000000000000000000000000000000000007bffffffffffffffffffffffffffffffffffffffffffffffffffffffff1916827bffffffffffffffffffffffffffffffffffffffffffffffffffffffff1916149050919050565b60008073ffffffffffffffffffffffffffffffffffffffff166002600084815260200190815260200160002060009054906101000a900473ffffffffffffffffffffffffffffffffffffffff1673ffffffffffffffffffffffffffffffffffffffff1614159050919050565b600033905090565b816004600083815260200190815260200160002060006101000a81548173ffffffffffffffffffffffffffffffffffffffff021916908373ffffffffffffffffffffffffffffffffffffffff160217905550808273ffffffffffffffffffffffffffffffffffffffff1661175183610956565b73ffffffffffffffffffffffffffffffffffffffff167f8c5be1e5ebec7d5bd14f71427d1e84f3dd0314c0f7b2291e5b200ac8c7c3b92560405160405180910390a45050565b60006117a28261166a565b6117e1576040517f08c379a00000000000000000000000000000000000000000000000000000000081526004016117d890613877565b60405180910390fd5b60006117ec83610956565b90508073ffffffffffffffffffffffffffffffffffffffff168473ffffffffffffffffffffffffffffffffffffffff16148061185b57508373ffffffffffffffffffffffffffffffffffffffff166118438461059d565b73ffffffffffffffffffffffffffffffffffffffff16145b8061186c575061186b818561156c565b5b91505092915050565b8273ffffffffffffffffffffffffffffffffffffffff1661189582610956565b73ffffffffffffffffffffffffffffffffffffffff16146118eb576040517f08c379a00000000000000000000000000000000000000000000000000000000081526004016118e290613997565b60405180910390fd5b600073ffffffffffffffffffffffffffffffffffffffff168273ffffffffffffffffffffffffffffffffffffffff16141561195b576040517f08c379a000000000000000000000000000000000000000000000000000000000815260040161195290613837565b60405180910390fd5b6119668383836122c9565b6119716000826116de565b6001600360008573ffffffffffffffffffffffffffffffffffffffff1673ffffffffffffffffffffffffffffffffffffffff16815260200190815260200160002060008282546119c19190613bcc565b925050819055506001600360008473ffffffffffffffffffffffffffffffffffffffff1673ffffffffffffffffffffffffffffffffffffffff1681526020019081526020016000206000828254611a189190613aeb565b92505081905550816002600083815260200190815260200160002060006101000a81548173ffffffffffffffffffffffffffffffffffffffff021916908373ffffffffffffffffffffffffffffffffffffffff160217905550808273ffffffffffffffffffffffffffffffffffffffff168473ffffffffffffffffffffffffffffffffffffffff167fddf252ad1be2c89b69c2b068fc378daa952ba7f163c4a11628f55a4df523b3ef60405160405180910390a4505050565b600081601354604051602001611ae8929190613547565b6040516020818303038152906040528051906020012060001c9050919050565b600081600001549050919050565b8173ffffffffffffffffffffffffffffffffffffffff168373ffffffffffffffffffffffffffffffffffffffff161415611b85576040517f08c379a0000000000000000000000000000000000000000000000000000000008152600401611b7c90613857565b60405180910390fd5b80600560008573ffffffffffffffffffffffffffffffffffffffff1673ffffffffffffffffffffffffffffffffffffffff16815260200190815260200160002060008473ffffffffffffffffffffffffffffffffffffffff1673ffffffffffffffffffffffffffffffffffffffff16815260200190815260200160002060006101000a81548160ff0219169083151502179055508173ffffffffffffffffffffffffffffffffffffffff168373ffffffffffffffffffffffffffffffffffffffff167f17307eab39ab6107e8899845ad3d59bd9653f200f220920489ca2b5937696c3183604051611c76919061377c565b60405180910390a3505050565b611c8e848484611875565b611c9a848484846122ce565b611cd9576040517f08c379a0000000000000000000000000000000000000000000000000000000008152600401611cd0906137f7565b60405180910390fd5b50505050565b606060405180602001604052806000815250905090565b6060611d018261166a565b611d40576040517f08c379a0000000000000000000000000000000000000000000000000000000008152600401611d37906139b7565b60405180910390fd5b6000611d4a611cdf565b90506000815111611d6a5760405180602001604052806000815250611d95565b80611d7484611d9d565b604051602001611d859291906134f2565b6040516020818303038152906040525b915050919050565b60606000821415611de5576040518060400160405280600181526020017f30000000000000000000000000000000000000000000000000000000000000008152509050611f45565b600082905060005b60008214611e17578080611e0090613ce8565b915050600a82611e109190613b41565b9150611ded565b60008167ffffffffffffffff811115611e59577f4e487b7100000000000000000000000000000000000000000000000000000000600052604160045260246000fd5b6040519080825280601f01601f191660200182016040528015611e8b5781602001600182028036833780820191505090505b5090505b60008514611f3e57600182611ea49190613bcc565b9150600a85611eb39190613d3b565b6030611ebf9190613aeb565b60f81b818381518110611efb577f4e487b7100000000000000000000000000000000000000000000000000000000600052603260045260246000fd5b60200101907effffffffffffffffffffffffffffffffffffffffffffffffffffffffffffff1916908160001a905350600a85611f379190613b41565b9450611e8f565b8093505050505b919050565b611fe081604051602401611f5e9190613797565b6040516020818303038152906040527f41304fac000000000000000000000000000000000000000000000000000000007bffffffffffffffffffffffffffffffffffffffffffffffffffffffff19166020820180517bffffffffffffffffffffffffffffffffffffffffffffffffffffffff8381831617835250505050612465565b50565b60606000825114156120065760405180602001604052806000815250905061217d565b6000604051806060016040528060408152602001613f0260409139905060006003600285516120359190613aeb565b61203f9190613b41565b600461204b9190613b72565b9050600060208261205c9190613aeb565b67ffffffffffffffff81111561209b577f4e487b7100000000000000000000000000000000000000000000000000000000600052604160045260246000fd5b6040519080825280601f01601f1916602001820160405280156120cd5781602001600182028036833780820191505090505b509050818152600183018586518101602084015b8183101561213c576003830192508251603f8160121c168501518253600182019150603f81600c1c168501518253600182019150603f8160061c168501518253600182019150603f81168501518253600182019150506120e1565b600389510660018114612156576002811461216657612171565b613d3d60f01b6002830352612171565b603d60f81b60018303525b50505050508093505050505b919050565b61219c82826040518060200160405280600081525061248e565b5050565b6121a98261166a565b6121e8576040517f08c379a00000000000000000000000000000000000000000000000000000000081526004016121df906138f7565b60405180910390fd5b8060066000848152602001908152602001600020908051906020019061220f9291906126ca565b505050565b6001816000016000828254019250508190555050565b6122c4838383604051602401612242939291906137b9565b6040516020818303038152906040527fe3849f79000000000000000000000000000000000000000000000000000000007bffffffffffffffffffffffffffffffffffffffffffffffffffffffff19166020820180517bffffffffffffffffffffffffffffffffffffffffffffffffffffffff8381831617835250505050612465565b505050565b505050565b60006122ef8473ffffffffffffffffffffffffffffffffffffffff166124e9565b15612458578373ffffffffffffffffffffffffffffffffffffffff1663150b7a026123186116d6565b8786866040518563ffffffff1660e01b815260040161233a9493929190613707565b602060405180830381600087803b15801561235457600080fd5b505af192505050801561238557506040513d601f19601f820116820180604052508101906123829190612a0e565b60015b612408573d80600081146123b5576040519150601f19603f3d011682016040523d82523d6000602084013e6123ba565b606091505b50600081511415612400576040517f08c379a00000000000000000000000000000000000000000000000000000000081526004016123f7906137f7565b60405180910390fd5b805181602001fd5b63150b7a0260e01b7bffffffffffffffffffffffffffffffffffffffffffffffffffffffff1916817bffffffffffffffffffffffffffffffffffffffffffffffffffffffff19161491505061245d565b600190505b949350505050565b60008151905060006a636f6e736f6c652e6c6f679050602083016000808483855afa5050505050565b61249883836124fc565b6124a560008484846122ce565b6124e4576040517f08c379a00000000000000000000000000000000000000000000000000000000081526004016124db906137f7565b60405180910390fd5b505050565b600080823b905060008111915050919050565b600073ffffffffffffffffffffffffffffffffffffffff168273ffffffffffffffffffffffffffffffffffffffff16141561256c576040517f08c379a000000000000000000000000000000000000000000000000000000000815260040161256390613917565b60405180910390fd5b6125758161166a565b156125b5576040517f08c379a00000000000000000000000000000000000000000000000000000000081526004016125ac90613817565b60405180910390fd5b6125c1600083836122c9565b6001600360008473ffffffffffffffffffffffffffffffffffffffff1673ffffffffffffffffffffffffffffffffffffffff16815260200190815260200160002060008282546126119190613aeb565b92505081905550816002600083815260200190815260200160002060006101000a81548173ffffffffffffffffffffffffffffffffffffffff021916908373ffffffffffffffffffffffffffffffffffffffff160217905550808273ffffffffffffffffffffffffffffffffffffffff16600073ffffffffffffffffffffffffffffffffffffffff167fddf252ad1be2c89b69c2b068fc378daa952ba7f163c4a11628f55a4df523b3ef60405160405180910390a45050565b8280546126d690613cb6565b90600052602060002090601f0160209004810192826126f8576000855561273f565b82601f1061271157805160ff191683800117855561273f565b8280016001018555821561273f579182015b8281111561273e578251825591602001919060010190612723565b5b50905061274c9190612750565b5090565b5b80821115612769576000816000905550600101612751565b5090565b600061278061277b84613a63565b613a32565b90508281526020810184848401111561279857600080fd5b6127a3848285613c74565b509392505050565b6000813590506127ba81613e39565b92915050565b6000813590506127cf81613e50565b92915050565b6000813590506127e481613e67565b92915050565b6000815190506127f981613e67565b92915050565b600082601f83011261281057600080fd5b813561282084826020860161276d565b91505092915050565b60008135905061283881613e7e565b92915050565b60006020828403121561285057600080fd5b600061285e848285016127ab565b91505092915050565b6000806040838503121561287a57600080fd5b6000612888858286016127ab565b9250506020612899858286016127ab565b9150509250929050565b6000806000606084860312156128b857600080fd5b60006128c6868287016127ab565b93505060206128d7868287016127ab565b92505060406128e886828701612829565b9150509250925092565b6000806000806080858703121561290857600080fd5b6000612916878288016127ab565b9450506020612927878288016127ab565b935050604061293887828801612829565b925050606085013567ffffffffffffffff81111561295557600080fd5b612961878288016127ff565b91505092959194509250565b6000806040838503121561298057600080fd5b600061298e858286016127ab565b925050602061299f858286016127c0565b9150509250929050565b600080604083850312156129bc57600080fd5b60006129ca858286016127ab565b92505060206129db85828601612829565b9150509250929050565b6000602082840312156129f757600080fd5b6000612a05848285016127d5565b91505092915050565b600060208284031215612a2057600080fd5b6000612a2e848285016127ea565b91505092915050565b600060208284031215612a4957600080fd5b6000612a5784828501612829565b91505092915050565b612a6981613c00565b82525050565b612a7881613c12565b82525050565b6000612a8982613aa8565b612a938185613abe565b9350612aa3818560208601613c83565b612aac81613e28565b840191505092915050565b6000612ac282613ab3565b612acc8185613acf565b9350612adc818560208601613c83565b612ae581613e28565b840191505092915050565b6000612afb82613ab3565b612b058185613ae0565b9350612b15818560208601613c83565b80840191505092915050565b60008154612b2e81613cb6565b612b388186613ae0565b94506001821660008114612b535760018114612b6457612b97565b60ff19831686528186019350612b97565b612b6d85613a93565b60005b83811015612b8f57815481890152600182019150602081019050612b70565b838801955050505b50505092915050565b6000612bad603283613acf565b91507f4552433732313a207472616e7366657220746f206e6f6e20455243373231526560008301527f63656976657220696d706c656d656e74657200000000000000000000000000006020830152604082019050919050565b6000612c13608183613ae0565b91507f222c20226465736372697074696f6e223a2022576963686f6e607320636f6f6c60008301527f20636f6c6c656374696f6e206f66204e46547320726570726573656e74696e6760208301527f206d69676874792072616e646f6d20637265617475726573212e222c2022696d60408301527f616765223a2022646174613a696d6167652f7376672b786d6c3b62617365363460608301527f2c000000000000000000000000000000000000000000000000000000000000006080830152608182019050919050565b6000612ceb601c83613acf565b91507f4552433732313a20746f6b656e20616c7265616479206d696e746564000000006000830152602082019050919050565b6000612d2b602483613acf565b91507f4552433732313a207472616e7366657220746f20746865207a65726f2061646460008301527f72657373000000000000000000000000000000000000000000000000000000006020830152604082019050919050565b6000612d91601983613acf565b91507f4552433732313a20617070726f766520746f2063616c6c6572000000000000006000830152602082019050919050565b6000612dd1602c83613acf565b91507f4552433732313a206f70657261746f7220717565727920666f72206e6f6e657860008301527f697374656e7420746f6b656e00000000000000000000000000000000000000006020830152604082019050919050565b6000612e37603883613acf565b91507f4552433732313a20617070726f76652063616c6c6572206973206e6f74206f7760008301527f6e6572206e6f7220617070726f76656420666f7220616c6c00000000000000006020830152604082019050919050565b6000612e9d602a83613acf565b91507f4552433732313a2062616c616e636520717565727920666f7220746865207a6560008301527f726f2061646472657373000000000000000000000000000000000000000000006020830152604082019050919050565b6000612f03602983613acf565b91507f4552433732313a206f776e657220717565727920666f72206e6f6e657869737460008301527f656e7420746f6b656e00000000000000000000000000000000000000000000006020830152604082019050919050565b6000612f69602e83613acf565b91507f45524337323155524953746f726167653a2055524920736574206f66206e6f6e60008301527f6578697374656e7420746f6b656e0000000000000000000000000000000000006020830152604082019050919050565b6000612fcf600283613ae0565b91507f3b200000000000000000000000000000000000000000000000000000000000006000830152600282019050919050565b600061300f600283613ae0565b91507f227d0000000000000000000000000000000000000000000000000000000000006000830152600282019050919050565b600061304f600783613ae0565b91507f3c2f746578743e000000000000000000000000000000000000000000000000006000830152600782019050919050565b600061308f602083613acf565b91507f4552433732313a206d696e7420746f20746865207a65726f20616464726573736000830152602082019050919050565b60006130cf603183613acf565b91507f45524337323155524953746f726167653a2055524920717565727920666f722060008301527f6e6f6e6578697374656e7420746f6b656e0000000000000000000000000000006020830152604082019050919050565b6000613135603b83613acf565b91507f4d6178206e756d626572206f66204e46547320666f72207468697320636f6c6c60008301527f656374696f6e20686173206265656e2072656163686564203a282e00000000006020830152604082019050919050565b600061319b602c83613acf565b91507f4552433732313a20617070726f76656420717565727920666f72206e6f6e657860008301527f697374656e7420746f6b656e00000000000000000000000000000000000000006020830152604082019050919050565b6000613201602983613acf565b91507f4552433732313a207472616e73666572206f6620746f6b656e2074686174206960008301527f73206e6f74206f776e00000000000000000000000000000000000000000000006020830152604082019050919050565b6000613267602f83613acf565b91507f4552433732314d657461646174613a2055524920717565727920666f72206e6f60008301527f6e6578697374656e7420746f6b656e00000000000000000000000000000000006020830152604082019050919050565b60006132cd600783613ae0565b91507f2066696c6c3a20000000000000000000000000000000000000000000000000006000830152600782019050919050565b600061330d600a83613ae0565b91507f7b226e616d65223a2022000000000000000000000000000000000000000000006000830152600a82019050919050565b600061334d602183613acf565b91507f4552433732313a20617070726f76616c20746f2063757272656e74206f776e6560008301527f72000000000000000000000000000000000000000000000000000000000000006020830152604082019050919050565b60006133b3601d83613ae0565b91507f646174613a6170706c69636174696f6e2f6a736f6e3b6261736536342c0000006000830152601d82019050919050565b60006133f3603183613acf565b91507f4552433732313a207472616e736665722063616c6c6572206973206e6f74206f60008301527f776e6572206e6f7220617070726f7665640000000000000000000000000000006020830152604082019050919050565b6000613459600683613ae0565b91507f3c2f7376673e00000000000000000000000000000000000000000000000000006000830152600682019050919050565b6000613499600183613ae0565b91507f2f000000000000000000000000000000000000000000000000000000000000006000830152600182019050919050565b6134d581613c6a565b82525050565b6134ec6134e782613c6a565b613d31565b82525050565b60006134fe8285612af0565b915061350a8284612af0565b91508190509392505050565b60006135228286612af0565b915061352e8285612af0565b915061353a8284612af0565b9150819050949350505050565b60006135538285612af0565b915061355f82846134db565b6020820191508190509392505050565b600061357b828b612b21565b9150613587828a612af0565b91506135938289612af0565b915061359f8288612b21565b91506135ab8287612af0565b91506135b78286612af0565b91506135c38285612af0565b91506135ce82613042565b91506135da8284612af0565b91506135e58261344c565b91508190509998505050505050505050565b60006136038286612b21565b915061360f8285612af0565b915061361a8261348c565b91506136268284612af0565b915061363182613042565b9150819050949350505050565b600061364a8286612b21565b9150613655826132c0565b91506136618285612af0565b915061366c82612fc2565b91506136788284612b21565b9150819050949350505050565b600061369082613300565b915061369c8285612af0565b91506136a782612c06565b91506136b38284612af0565b91506136be82613002565b91508190509392505050565b60006136d5826133a6565b91506136e18284612af0565b915081905092915050565b60006020820190506137016000830184612a60565b92915050565b600060808201905061371c6000830187612a60565b6137296020830186612a60565b61373660408301856134cc565b81810360608301526137488184612a7e565b905095945050505050565b60006040820190506137686000830185612a60565b61377560208301846134cc565b9392505050565b60006020820190506137916000830184612a6f565b92915050565b600060208201905081810360008301526137b18184612ab7565b905092915050565b600060608201905081810360008301526137d38186612ab7565b90506137e260208301856134cc565b6137ef6040830184612a60565b949350505050565b6000602082019050818103600083015261381081612ba0565b9050919050565b6000602082019050818103600083015261383081612cde565b9050919050565b6000602082019050818103600083015261385081612d1e565b9050919050565b6000602082019050818103600083015261387081612d84565b9050919050565b6000602082019050818103600083015261389081612dc4565b9050919050565b600060208201905081810360008301526138b081612e2a565b9050919050565b600060208201905081810360008301526138d081612e90565b9050919050565b600060208201905081810360008301526138f081612ef6565b9050919050565b6000602082019050818103600083015261391081612f5c565b9050919050565b6000602082019050818103600083015261393081613082565b9050919050565b60006020820190508181036000830152613950816130c2565b9050919050565b6000602082019050818103600083015261397081613128565b9050919050565b600060208201905081810360008301526139908161318e565b9050919050565b600060208201905081810360008301526139b0816131f4565b9050919050565b600060208201905081810360008301526139d08161325a565b9050919050565b600060208201905081810360008301526139f081613340565b9050919050565b60006020820190508181036000830152613a10816133e6565b9050919050565b6000602082019050613a2c60008301846134cc565b92915050565b6000604051905081810181811067ffffffffffffffff82111715613a5957613a58613df9565b5b8060405250919050565b600067ffffffffffffffff821115613a7e57613a7d613df9565b5b601f19601f8301169050602081019050919050565b60008190508160005260206000209050919050565b600081519050919050565b600081519050919050565b600082825260208201905092915050565b600082825260208201905092915050565b600081905092915050565b6000613af682613c6a565b9150613b0183613c6a565b9250827fffffffffffffffffffffffffffffffffffffffffffffffffffffffffffffffff03821115613b3657613b35613d6c565b5b828201905092915050565b6000613b4c82613c6a565b9150613b5783613c6a565b925082613b6757613b66613d9b565b5b828204905092915050565b6000613b7d82613c6a565b9150613b8883613c6a565b9250817fffffffffffffffffffffffffffffffffffffffffffffffffffffffffffffffff0483118215151615613bc157613bc0613d6c565b5b828202905092915050565b6000613bd782613c6a565b9150613be283613c6a565b925082821015613bf557613bf4613d6c565b5b828203905092915050565b6000613c0b82613c4a565b9050919050565b60008115159050919050565b60007fffffffff0000000000000000000000000000000000000000000000000000000082169050919050565b600073ffffffffffffffffffffffffffffffffffffffff82169050919050565b6000819050919050565b82818337600083830152505050565b60005b83811015613ca1578082015181840152602081019050613c86565b83811115613cb0576000848401525b50505050565b60006002820490506001821680613cce57607f821691505b60208210811415613ce257613ce1613dca565b5b50919050565b6000613cf382613c6a565b91507fffffffffffffffffffffffffffffffffffffffffffffffffffffffffffffffff821415613d2657613d25613d6c565b5b600182019050919050565b6000819050919050565b6000613d4682613c6a565b9150613d5183613c6a565b925082613d6157613d60613d9b565b5b828206905092915050565b7f4e487b7100000000000000000000000000000000000000000000000000000000600052601160045260246000fd5b7f4e487b7100000000000000000000000000000000000000000000000000000000600052601260045260246000fd5b7f4e487b7100000000000000000000000000000000000000000000000000000000600052602260045260246000fd5b7f4e487b7100000000000000000000000000000000000000000000000000000000600052604160045260246000fd5b6000601f19601f8301169050919050565b613e4281613c00565b8114613e4d57600080fd5b50565b613e5981613c12565b8114613e6457600080fd5b50565b613e7081613c1e565b8114613e7b57600080fd5b50565b613e8781613c6a565b8114613e9257600080fd5b5056fe0a2d2d2d2d2d2d2d2d2d2d2047656e6572617465642053564720202d2d2d2d2d2d2d2d2d2d416e204e465420772f20494420257320686173206265656e206d696e74656420746f2025730a2d2d2d2d2d2d2d2d2d20456e636f64656420555249202d2d2d2d2d2d2d2d2d2d2d4142434445464748494a4b4c4d4e4f505152535455565758595a6162636465666768696a6b6c6d6e6f707172737475767778797a303132333435363738392b2fa26469706673582212205e00e40bc4c767a1b0cdaa99df9f4e5207466305f375d83069d0e7008b59751b64736f6c634300080000333c726563742077696474683d273130302527206865696768743d27313030252720636c6173733d276267272f3e3c7465787420783d273530252720793d273530252720636c6173733d276d73672720646f6d696e616e742d626173656c696e653d276d6964646c652720746578742d616e63686f723d276d6964646c65273e666f6e742d66616d696c793a20274669726120436f6465272c206d6f6e6f73706163653b20666f6e742d73697a653a20323470783b207d3c2f7374796c653e3c7374796c653e2e7365726965207b20666f6e742d66616d696c793a20274669726120436f6465272c206d6f6e6f73706163653b20666f6e742d73697a653a20313070783b2066696c6c3a2077686974653b7d3c2f7374796c653e3c7465787420783d273935252720793d273935252720636c6173733d2773657269652720646f6d696e616e742d626173656c696e653d27626f74746f6d2720746578742d616e63686f723d27656e64273e4d69676874792043726561747572653a203c73766720786d6c6e733d27687474703a2f2f7777772e77332e6f72672f323030302f73766727207072657365727665417370656374526174696f3d27784d696e594d696e206d656574272076696577426f783d273020302034353020333530273e",
  "linkReferences": {},
  "deployedLinkReferences": {}
}